:100000000C9446000C9465000C9465000C946500FB
:100010000C9465000C9465000C9465000C946500CC
:100020000C9465000C9465000C9465000C946500BC
:100030000C9465000C9465000C9465000C946500AC
:100040000C9465000C9465000C9465000C9465009C
:100050000C9465000C9465000C9465000C9465008C
:100060000C9465000C9465000C9465000C9465007C
:100070000C9465000C9465000C9465000C9465006C
:100080000C9465000C9465000C94650011241FBE4F
:10009000CFEFD0E1DEBFCDBF11E0A0E0B1E0EEEAEE
:1000A000FAE000E00BBF02C007900D92A830B10744
:1000B000D9F723E0A8E0B1E001C01D92A936B2074C
:1000C000E1F70E9441010C9455050C9400000F9338
:1000D0001F93CF93DF930E94D003C82F8B3109F079
:1000E00042C00E94D003D82F809308010E94D00301
:1000F000082F90E090930A01809309010E94D00399
:10010000182F80E090910901810F911D90930A01B1
:10011000809309010E94D0038E3039F0C1E08C2F0A
:10012000DF91CF911F910F910895D027CD27C1273F
:10013000C82709E011E0C801895091400F5F1F4FA7
:100140002091090130910A018217930730F00E9433
:10015000D003C813E3CFC2E0E2CF0E94D003C82788
:10016000F8018183E8CF8C3F11F0C0E0D8CF0E9426
:10017000D0030E94D0030E94D0030E94D003C82F56
:10018000813099F70E94D00390E090930A01809308
:1001900009010E94D00320E030910901820F932FC2
:1001A000911D90930A018093090109E011E0C801B3
:1001B00089509140E0910901F0910A010F5F1F4FB2
:1001C0008E179F0760F0E75FFE4FCF018950914087
:1001D0008F3F910549F040F00E94D003A0CF0E94CC
:1001E000D003F8018183E3CF12823196EECFEF92F4
:1001F000FF920F931F93CF93DF938C018BE10E94AB
:10020000CC03D09108018D2F0E94CC03F801C1814D
:100210008C2F0E94CC03F801808195E1D927D82743
:100220000E94CC03CD278EE00E94CC037801C70149
:10023000801B910BFFEFEF1AFF0AF801208131813B
:100240008217930748F08C2F0E94CC0380E0CDB733
:10025000DEB7E6E00C944605F7018181C8270E94CD
:10026000CC03E5CF30E020E02817390709F40895E2
:10027000ECECFAE03197F1F700C000002F5F3F4F40
:10028000F3CFA1E0B0E0E7E4F1E00C941E050E949A
:10029000C0030E9467008823E1F3813039F4000035
:1002A00090E080E02196E2E10C943A058230C1F7BB
:1002B0000000E4E04E2E512CF3E0AF2EB12C02E012
:1002C00010E0ABE06A2E712C0000E0910B01E150D0
:1002D000ED3108F04AC0F0E0E059FE4F0C941505EE
:1002E0008D01B901D201B501B501F001B501B5012A
:1002F000B501B501B501B501B501B501B5010602FC
:10030000290231024E029302E6021E035D037903C5
:100310005D03790379037903970370923802609241
:10032000370281E08093390210923A0288E080938C
:100330003B0281E480933C0286E580933D0282E5A6
:1003400080933E0289E480933F0283E580934002DC
:1003500080E5809341028FE58093420282E380939F
:10036000430287E392E00E94F70000000E946700CA
:10037000ABCF60910D0180910C010E94FD031093A1
:10038000380200933702882339F082E080933902E3
:1003900080EC80933A02E5CF82E08093390210929C
:1003A0003A02DFCF80910C0191E09983BE016F5F2B
:1003B0007F4F0E942704882331F010933802009366
:1003C000370283E0E3CFB0923802A092370283E095
:1003D0008093390210923A02898180933B02C1CF07
:1003E00080910F018093650380910E0180936603D5
:1003F00080910D018093670380910C0180936803C5
:10040000109338020093370286E0C7CF0E94DA03C8
:10041000809113010E94F504809114010E94F5045B
:10042000809115010E94F504809116010E94F50447
:1004300080E1809339022FEF3FEB81E22150304081
:100440008040E1F700C000001093380200933702AB
:10045000A6CF0E94F603109338020093370281E181
:100460009CCF80910E010E94F50480910F010E94A3
:10047000F504809110010E94F504809111010E9401
:10048000F50480910C0190E00E9432011093380233
:100490000093370292E19093390281CFC0900C0112
:1004A000D12CDC2CCC2480910D01C80ED11C2090C5
:1004B00065033090660375E1872E71E0972EF12C6D
:1004C000E12CEC14FD0461F4622D832D0E948E0456
:1004D000109338020093370223E1209339025FCF53
:1004E000F40121914F014091650360E08E2D8170F0
:1004F0000E946F04E0FE13C0809165039091660333
:10050000A0916703B09168030196A11DB11D80936E
:10051000650390936603A0936703B0936803FFEFAE
:10052000EF1AFF0ACECFC0900C01D12CDC2CCC24CA
:1005300080910D01C80ED11C5BE3852E52E0952EF3
:10054000312CF12CE12CEC14FD0481F434E13093D6
:100550003902C701039690933802809337021092B4
:100560003A02F701E95CFD4F1482FBCE90910E0137
:10057000832D8870892B0E94F504809166030E9468
:10058000F504809165030E94F50480E00E94F50463
:10059000F40181934F01E0FE13C0809165039091B7
:1005A0006603A0916703B09168030196A11DB11D78
:1005B0008093650390936603A0936703B0936803E9
:1005C000FFEFEF1AFF0A28E0320EBDCFC0900C01FA
:1005D000D12CDC2CCC2480910D01C80ED11C39E02B
:1005E000E32E31E0F32EC701895091408C159D0513
:1005F00030F0109338020093370225E16ECFF701F7
:10060000448560916503809166030E94A2048091F5
:10061000650390916603A0916703B091680301960A
:10062000A11DB11D8093650390936603A09367039A
:10063000B0936803FFEFEF1AFF0AD5CFE0900C01EB
:10064000F12CFE2CEE2480910D01E80EF11C97E3B5
:10065000C92E92E0D92EC601875392408E159F0570
:1006600020F026E12093390274CF80910E010E9480
:10067000F504809166030E94F504809165030E9451
:10068000F50480E00E94F504F601848380916503FF
:1006900090916603A0916703B09168030196A11D34
:1006A000B11D8093650390936603A0936703B09395
:1006B0006803FFEFCF1ADF0ACECF80910C010E94B2
:1006C000F50480910D010E94F50480910E010E94B5
:1006D000F50480910F010E94F504B0923802A092B7
:1006E00037023CE13093390210923A0210923B02F9
:1006F00038CE80910D010E94F50480910E010E9478
:10070000F50480910F010E94F504809110010E9470
:10071000F50450923802409237029CE190933902DE
:1007200010923A0280933B0210923C021ACE8091C2
:100730000F010E94F504D82E809110010E94F5044B
:10074000E82E809111010E94F504F82E809112018B
:100750000E94F504E7E0F0E0F0933802E0933702FE
:10076000FDE1F093390210923A02D0923B02E092FE
:100770003C02F0923D0280933E0210923F02F1CD86
:1007800085E089B91092900088E18AB9E5E9F0E046
:1007900080818660808308955D9BFECF8CB908952B
:1007A0005F9BFECF8CB10895E4E6F0E0808180612C
:1007B000808308950E9411050E94D40381E00E9465
:1007C0000805E5E6F0E080818F7E80838FEF9BE671
:1007D0000197F1F700C000000E94DF0485E090E07F
:1007E0000E94B90481E00E94EA04089580E00E941A
:1007F000FA0481E00E94EA04089584598C3028F5B7
:10080000E82FF0E0EA5FFB4F0C9415051204160484
:1008100019041C041C0425042504250425042504AE
:100820001F0422046093000180E008956093010199
:10083000FBCF60930201F8CF60930301F5CF609383
:100840000501F2CF60930601EFCF81E00895DB014F
:100850008058803208F041C0E82FF0E0EE5CFB4F9A
:100860000C941505520452046D046D046D046D045E
:100870006D046D046D046D046D046D046D046D04F0
:100880006D046D045604560458046D045A045D0446
:100890006004630456046D0466046D046D0468040A
:1008A0006D046A0481E08C9380E0089582E0FBCFC0
:1008B00084E0F9CF80910001F6CF80910101F3CF60
:1008C00080910201F0CF80910301EDCF8AEAEBCF56
:1008D0001C92EACF80910601E6CF81E008951F9334
:1008E000CF93DF93162FD42FC22F8230A8F428E0A5
:1008F000829FC001112480640E94F504812F0E9410
:10090000F5048D2F0E94F5048C2F0E94F50480E0E1
:10091000DF91CF911F91089581E0FACFCF93DF93BC
:10092000D82FC62F8CE40E94F5048D2F0E94F50469
:100930008C2F0E94F50480E00E94F50480E0DF9196
:10094000CF9108951F93CF93DF93182FD62FC42FE5
:1009500080EC0E94F504812F0E94F5048D2F0E94E7
:10096000F5048C2F0E94F50480E0DF91CF911F9158
:1009700008958730910508F5FC01EF53FB4F0C9467
:100980001505D704C804D904CC04DB04D104D4046D
:1009900070986998689803C070986998689A80E020
:1009A00008957098699AF6CF7098699AF7CF709AFF
:1009B000F0CF709AF2CF709AF5CF81E008956C9ADB
:1009C00087B3807F876087BB88B3827F856088BB61
:1009D00080E00895813019F46E9A80E008958111C5
:1009E00002C06E98089581E008958FB9779BFECF7D
:1009F0008FB10895823058F4909162009F7E40E15B
:100A0000849F90011124892F822B80936200089586
:100A100098B39F7140E2849F90011124922B98BB60
:100A2000089587B3806E87BB0895EE0FFF1F0024E3
:100A3000001C0BBE0790F691E02D09942F923F9277
:100A40004F925F926F927F928F929F92AF92BF92DE
:100A5000CF92DF92EF92FF920F931F93CF93DF938A
:100A6000CDB7DEB7CA1BDB0B0FB6F894DEBF0FBEE7
:100A7000CDBF09942A88398848885F846E847D8434
:100A80008C849B84AA84B984C884DF80EE80FD8036
:100A90000C811B81AA81B981CE0FD11D0FB6F894AC
:0E0AA000DEBF0FBECDBFED010895F894FFCF6D
:080AAE00323202019801000040
:00000001FF
